{
  "contractName": "FileFactory",
  "abi": [
    {
      "constant": true,
      "inputs": [
        {
          "name": "_operator",
          "type": "address"
        },
        {
          "name": "_role",
          "type": "string"
        }
      ],
      "name": "checkRole",
      "outputs": [],
      "payable": false,
      "stateMutability": "view",
      "type": "function"
    },
    {
      "constant": true,
      "inputs": [
        {
          "name": "_operator",
          "type": "address"
        },
        {
          "name": "_role",
          "type": "string"
        }
      ],
      "name": "hasRole",
      "outputs": [
        {
          "name": "",
          "type": "bool"
        }
      ],
      "payable": false,
      "stateMutability": "view",
      "type": "function"
    },
    {
      "constant": true,
      "inputs": [
        {
          "name": "",
          "type": "uint256"
        }
      ],
      "name": "filesList",
      "outputs": [
        {
          "name": "",
          "type": "address"
        }
      ],
      "payable": false,
      "stateMutability": "view",
      "type": "function"
    },
    {
      "constant": true,
      "inputs": [],
      "name": "owner",
      "outputs": [
        {
          "name": "",
          "type": "address"
        }
      ],
      "payable": false,
      "stateMutability": "view",
      "type": "function"
    },
    {
      "constant": true,
      "inputs": [],
      "name": "fileIndex",
      "outputs": [
        {
          "name": "",
          "type": "uint256"
        }
      ],
      "payable": false,
      "stateMutability": "view",
      "type": "function"
    },
    {
      "anonymous": false,
      "inputs": [
        {
          "indexed": true,
          "name": "operator",
          "type": "address"
        },
        {
          "indexed": false,
          "name": "role",
          "type": "string"
        }
      ],
      "name": "RoleAdded",
      "type": "event"
    },
    {
      "anonymous": false,
      "inputs": [
        {
          "indexed": true,
          "name": "operator",
          "type": "address"
        },
        {
          "indexed": false,
          "name": "role",
          "type": "string"
        }
      ],
      "name": "RoleRemoved",
      "type": "event"
    },
    {
      "constant": false,
      "inputs": [
        {
          "name": "_hash",
          "type": "string"
        },
        {
          "name": "_name",
          "type": "string"
        }
      ],
      "name": "createFileContract",
      "outputs": [],
      "payable": false,
      "stateMutability": "nonpayable",
      "type": "function"
    },
    {
      "constant": true,
      "inputs": [],
      "name": "getDeployedFileContract",
      "outputs": [
        {
          "name": "",
          "type": "address[]"
        }
      ],
      "payable": false,
      "stateMutability": "view",
      "type": "function"
    },
    {
      "constant": true,
      "inputs": [
        {
          "name": "_contractAddress",
          "type": "address"
        }
      ],
      "name": "getCreater",
      "outputs": [
        {
          "name": "",
          "type": "address"
        }
      ],
      "payable": false,
      "stateMutability": "view",
      "type": "function"
    },
    {
      "constant": true,
      "inputs": [
        {
          "name": "_contractAddress",
          "type": "address"
        }
      ],
      "name": "getFileName",
      "outputs": [
        {
          "name": "",
          "type": "string"
        }
      ],
      "payable": false,
      "stateMutability": "view",
      "type": "function"
    },
    {
      "constant": false,
      "inputs": [],
      "name": "destory",
      "outputs": [],
      "payable": false,
      "stateMutability": "nonpayable",
      "type": "function"
    }
  ],
  "bytecode": "0x608060405234801561001057600080fd5b50612c76806100206000396000f3fe608060405260043610620000af576000357c0100000000000000000000000000000000000000000000000000000000900463ffffffff16806303a9e03014620000b45780630988ca8c1462000149578063217fe6c614620002385780634e50a2bd146200033f5780636bdebcc914620003be5780638da5cb5b14620003d85780639e3252441462000432578063a1b4dce71462000503578063b5206a551462000531578063e7f8e34b14620005a2575b600080fd5b348015620000c157600080fd5b506200010760048036036020811015620000da57600080fd5b81019080803573ffffffffffffffffffffffffffffffffffffffff1690602001909291905050506200070b565b604051808273ffffffffffffffffffffffffffffffffffffffff1673ffffffffffffffffffffffffffffffffffffffff16815260200191505060405180910390f35b3480156200015657600080fd5b5062000236600480360360408110156200016f57600080fd5b81019080803573ffffffffffffffffffffffffffffffffffffffff16906020019092919080359060200190640100000000811115620001ad57600080fd5b820183602082011115620001c057600080fd5b80359060200191846001830284011164010000000083111715620001e357600080fd5b91908080601f016020809104026020016040519081016040528093929190818152602001838380828437600081840152601f19601f82011690508083019250505050505050919291929050505062000774565b005b3480156200024557600080fd5b5062000325600480360360408110156200025e57600080fd5b81019080803573ffffffffffffffffffffffffffffffffffffffff169060200190929190803590602001906401000000008111156200029c57600080fd5b820183602082011115620002af57600080fd5b80359060200191846001830284011164010000000083111715620002d257600080fd5b91908080601f016020809104026020016040519081016040528093929190818152602001838380828437600081840152601f19601f820116905080830192505050505050509192919290505050620007f9565b604051808215151515815260200191505060405180910390f35b3480156200034c57600080fd5b506200037c600480360360208110156200036557600080fd5b810190808035906020019092919050505062000884565b604051808273ffffffffffffffffffffffffffffffffffffffff1673ffffffffffffffffffffffffffffffffffffffff16815260200191505060405180910390f35b348015620003cb57600080fd5b50620003d6620008c3565b005b348015620003e557600080fd5b50620003f06200091d565b604051808273ffffffffffffffffffffffffffffffffffffffff1673ffffffffffffffffffffffffffffffffffffffff16815260200191505060405180910390f35b3480156200043f57600080fd5b5062000485600480360360208110156200045857600080fd5b81019080803573ffffffffffffffffffffffffffffffffffffffff16906020019092919050505062000943565b6040518080602001828103825283818151815260200191508051906020019080838360005b83811015620004c7578082015181840152602081019050620004aa565b50505050905090810190601f168015620004f55780820380516001836020036101000a031916815260200191505b509250505060405180910390f35b3480156200051057600080fd5b506200051b62000a28565b6040518082815260200191505060405180910390f35b3480156200053e57600080fd5b506200054962000a2e565b6040518080602001828103825283818151815260200191508051906020019060200280838360005b838110156200058e57808201518184015260208101905062000571565b505050509050019250505060405180910390f35b348015620005af57600080fd5b506200070960048036036040811015620005c857600080fd5b8101908080359060200190640100000000811115620005e657600080fd5b820183602082011115620005f957600080fd5b803590602001918460018302840111640100000000831117156200061c57600080fd5b91908080601f016020809104026020016040519081016040528093929190818152602001838380828437600081840152601f19601f820116905080830192505050505050509192919290803590602001906401000000008111156200068057600080fd5b8201836020820111156200069357600080fd5b80359060200191846001830284011164010000000083111715620006b657600080fd5b91908080601f016020809104026020016040519081016040528093929190818152602001838380828437600081840152601f19601f82011690508083019250505050505050919291929050505062000abe565b005b6000600560008373ffffffffffffffffffffffffffffffffffffffff1673ffffffffffffffffffffffffffffffffffffffff16815260200190815260200160002060009054906101000a900473ffffffffffffffffffffffffffffffffffffffff169050919050565b620007f5826000836040518082805190602001908083835b602083101515620007b357805182526020820191506020810190506020830392506200078c565b6001836020036101000a038019825116818451168082178552505050505050905001915050908152602001604051809103902062000e9290919063ffffffff16565b5050565b60006200087c836000846040518082805190602001908083835b6020831015156200083a578051825260208201915060208101905060208303925062000813565b6001836020036101000a038019825116818451168082178552505050505050905001915050908152602001604051809103902062000eae90919063ffffffff16565b905092915050565b6001818154811015156200089457fe5b906000526020600020016000915054906101000a900473ffffffffffffffffffffffffffffffffffffffff1681565b62000904336040805190810160405280600581526020017f6f776e657200000000000000000000000000000000000000000000000000000081525062000774565b3373ffffffffffffffffffffffffffffffffffffffff16ff5b600360009054906101000a900473ffffffffffffffffffffffffffffffffffffffff1681565b6060600660008373ffffffffffffffffffffffffffffffffffffffff1673ffffffffffffffffffffffffffffffffffffffff1681526020019081526020016000208054600181600116156101000203166002900480601f01602080910402602001604051908101604052809291908181526020018280546001816001161561010002031660029004801562000a1c5780601f10620009f05761010080835404028352916020019162000a1c565b820191906000526020600020905b815481529060010190602001808311620009fe57829003601f168201915b50505050509050919050565b60025481565b6060600180548060200260200160405190810160405280929190818152602001828054801562000ab457602002820191906000526020600020905b8160009054906101000a900473ffffffffffffffffffffffffffffffffffffffff1673ffffffffffffffffffffffffffffffffffffffff168152602001906001019080831162000a69575b5050505050905090565b600082338362000acd62000f07565b80806020018473ffffffffffffffffffffffffffffffffffffffff1673ffffffffffffffffffffffffffffffffffffffff16815260200180602001838103835286818151815260200191508051906020019080838360005b8381101562000b4257808201518184015260208101905062000b25565b50505050905090810190601f16801562000b705780820380516001836020036101000a031916815260200191505b50838103825284818151815260200191508051906020019080838360005b8381101562000bab57808201518184015260208101905062000b8e565b50505050905090810190601f16801562000bd95780820380516001836020036101000a031916815260200191505b5095505050505050604051809103906000f08015801562000bfe573d6000803e3d6000fd5b50905060018190806001815401808255809150509060018203906000526020600020016000909192909190916101000a81548173ffffffffffffffffffffffffffffffffffffffff021916908373ffffffffffffffffffffffffffffffffffffffff1602179055505060016002600082825401925050819055508060046000600254815260200190815260200160002060006101000a81548173ffffffffffffffffffffffffffffffffffffffff021916908373ffffffffffffffffffffffffffffffffffffffff16021790555033600560008373ffffffffffffffffffffffffffffffffffffffff1673ffffffffffffffffffffffffffffffffffffffff16815260200190815260200160002060006101000a81548173ffffffffffffffffffffffffffffffffffffffff021916908373ffffffffffffffffffffffffffffffffffffffff16021790555081600660008373ffffffffffffffffffffffffffffffffffffffff1673ffffffffffffffffffffffffffffffffffffffff168152602001908152602001600020908051906020019062000d9f92919062000f18565b50806007836040518082805190602001908083835b60208310151562000ddb578051825260208201915060208101905060208303925062000db4565b6001836020036101000a038019825116818451168082178552505050505050905001915050908152602001604051809103902060006101000a81548173ffffffffffffffffffffffffffffffffffffffff021916908373ffffffffffffffffffffffffffffffffffffffff16021790555033600360006101000a81548173ffffffffffffffffffffffffffffffffffffffff021916908373ffffffffffffffffffffffffffffffffffffffff160217905550505050565b62000e9e828262000eae565b151562000eaa57600080fd5b5050565b60008260000160008373ffffffffffffffffffffffffffffffffffffffff1673ffffffffffffffffffffffffffffffffffffffff16815260200190815260200160002060009054906101000a900460ff16905092915050565b604051611c838062000fc883390190565b828054600181600116156101000203166002900490600052602060002090601f016020900481019282601f1062000f5b57805160ff191683800117855562000f8c565b8280016001018555821562000f8c579182015b8281111562000f8b57825182559160200191906001019062000f6e565b5b50905062000f9b919062000f9f565b5090565b62000fc491905b8082111562000fc057600081600090555060010162000fa6565b5090565b9056fe60806040523480156200001157600080fd5b5060405162001c8338038062001c83833981018060405260608110156200003757600080fd5b8101908080516401000000008111156200005057600080fd5b828101905060208101848111156200006757600080fd5b81518560018202830111640100000000821117156200008557600080fd5b5050929190602001805190602001909291908051640100000000811115620000ac57600080fd5b82810190506020810184811115620000c357600080fd5b8151856001820283011164010000000082111715620000e157600080fd5b5050929190505050620000f36200050e565b83816000018190525081816020018190525082816040019073ffffffffffffffffffffffffffffffffffffffff16908173ffffffffffffffffffffffffffffffffffffffff1681525050428160600181815250506002548160800181815250506001819080600181540180825580915050906001820390600052602060002090600502016000909192909190915060008201518160000190805190602001906200019f92919062000554565b506020820151816001019080519060200190620001be92919062000554565b5060408201518160020160006101000a81548173ffffffffffffffffffffffffffffffffffffffff021916908373ffffffffffffffffffffffffffffffffffffffff16021790555060608201518160030155608082015181600401555050506200026d336040805190810160405280600581526020017f6f776e657200000000000000000000000000000000000000000000000000000081525062000367640100000000026401000000009004565b620002bd836040805190810160405280600581526020017f6f776e657200000000000000000000000000000000000000000000000000000081525062000367640100000000026401000000009004565b6200030d336040805190810160405280600581526020017f61646d696e00000000000000000000000000000000000000000000000000000081525062000367640100000000026401000000009004565b6200035d836040805190810160405280600581526020017f61646d696e00000000000000000000000000000000000000000000000000000081525062000367640100000000026401000000009004565b5050505062000603565b620003f6826000836040518082805190602001908083835b602083101515620003a657805182526020820191506020810190506020830392506200037f565b6001836020036101000a0380198251168184511680821785525050505050509050019150509081526020016040518091039020620004b064010000000002620014fb179091906401000000009004565b8173ffffffffffffffffffffffffffffffffffffffff167fbfec83d64eaa953f2708271a023ab9ee82057f8f3578d548c1a4ba0b5b700489826040518080602001828103825283818151815260200191508051906020019080838360005b838110156200047157808201518184015260208101905062000454565b50505050905090810190601f1680156200049f5780820380516001836020036101000a031916815260200191505b509250505060405180910390a25050565b60018260000160008373ffffffffffffffffffffffffffffffffffffffff1673ffffffffffffffffffffffffffffffffffffffff16815260200190815260200160002060006101000a81548160ff0219169083151502179055505050565b60a0604051908101604052806060815260200160608152602001600073ffffffffffffffffffffffffffffffffffffffff16815260200160008152602001600081525090565b828054600181600116156101000203166002900490600052602060002090601f016020900481019282601f106200059757805160ff1916838001178555620005c8565b82800160010185558215620005c8579182015b82811115620005c7578251825591602001919060010190620005aa565b5b509050620005d79190620005db565b5090565b6200060091905b80821115620005fc576000816000905550600101620005e2565b5090565b90565b61167080620006136000396000f3fe6080604052600436106100c5576000357c0100000000000000000000000000000000000000000000000000000000900463ffffffff1680630988ca8c146100ca57806312df278f146101b25780631785f53c14610292578063217fe6c6146102e35780636bdebcc9146103e357806370480275146103fa5780638ad682af1461044b578063b0f3f44d146104db578063c4779133146105c9578063d391014b14610691578063da6e787714610721578063ea6454cd146107eb578063ebe3d12014610816575b600080fd5b3480156100d657600080fd5b506101b0600480360360408110156100ed57600080fd5b81019080803573ffffffffffffffffffffffffffffffffffffffff1690602001909291908035906020019064010000000081111561012a57600080fd5b82018360208201111561013c57600080fd5b8035906020019184600183028401116401000000008311171561015e57600080fd5b91908080601f016020809104026020016040519081016040528093929190818152602001838380828437600081840152601f19601f820116905080830192505050505050509192919290505050610841565b005b3480156101be57600080fd5b50610278600480360360208110156101d557600080fd5b81019080803590602001906401000000008111156101f257600080fd5b82018360208201111561020457600080fd5b8035906020019184600183028401116401000000008311171561022657600080fd5b91908080601f016020809104026020016040519081016040528093929190818152602001838380828437600081840152601f19601f8201169050808301925050505050505091929192905050506108c2565b604051808215151515815260200191505060405180910390f35b34801561029e57600080fd5b506102e1600480360360208110156102b557600080fd5b81019080803573ffffffffffffffffffffffffffffffffffffffff1690602001909291905050506109db565b005b3480156102ef57600080fd5b506103c96004803603604081101561030657600080fd5b81019080803573ffffffffffffffffffffffffffffffffffffffff1690602001909291908035906020019064010000000081111561034357600080fd5b82018360208201111561035557600080fd5b8035906020019184600183028401116401000000008311171561037757600080fd5b91908080601f016020809104026020016040519081016040528093929190818152602001838380828437600081840152601f19601f820116905080830192505050505050509192919290505050610a5c565b604051808215151515815260200191505060405180910390f35b3480156103ef57600080fd5b506103f8610ae3565b005b34801561040657600080fd5b506104496004803603602081101561041d57600080fd5b81019080803573ffffffffffffffffffffffffffffffffffffffff169060200190929190505050610b3b565b005b34801561045757600080fd5b50610460610bbc565b6040518080602001828103825283818151815260200191508051906020019080838360005b838110156104a0578082015181840152602081019050610485565b50505050905090810190601f1680156104cd5780820380516001836020036101000a031916815260200191505b509250505060405180910390f35b3480156104e757600080fd5b50610514600480360360208110156104fe57600080fd5b8101908080359060200190929190505050610bf5565b60405180806020018473ffffffffffffffffffffffffffffffffffffffff1673ffffffffffffffffffffffffffffffffffffffff168152602001838152602001828103825285818151815260200191508051906020019080838360005b8381101561058c578082015181840152602081019050610571565b50505050905090810190601f1680156105b95780820380516001836020036101000a031916815260200191505b5094505050505060405180910390f35b3480156105d557600080fd5b5061068f600480360360208110156105ec57600080fd5b810190808035906020019064010000000081111561060957600080fd5b82018360208201111561061b57600080fd5b8035906020019184600183028401116401000000008311171561063d57600080fd5b91908080601f016020809104026020016040519081016040528093929190818152602001838380828437600081840152601f19601f820116905080830192505050505050509192919290505050610dfb565b005b34801561069d57600080fd5b506106a6610f74565b6040518080602001828103825283818151815260200191508051906020019080838360005b838110156106e65780820151818401526020810190506106cb565b50505050905090810190601f1680156107135780820380516001836020036101000a031916815260200191505b509250505060405180910390f35b34801561072d57600080fd5b50610736610fad565b60405180806020018473ffffffffffffffffffffffffffffffffffffffff1673ffffffffffffffffffffffffffffffffffffffff168152602001838152602001828103825285818151815260200191508051906020019080838360005b838110156107ae578082015181840152602081019050610793565b50505050905090810190601f1680156107db5780820380516001836020036101000a031916815260200191505b5094505050505060405180910390f35b3480156107f757600080fd5b506108006111b3565b6040518082815260200191505060405180910390f35b34801561082257600080fd5b5061082b6111b9565b6040518082815260200191505060405180910390f35b6108be826000836040518082805190602001908083835b60208310151561087d5780518252602082019150602081019050602083039250610858565b6001836020036101000a03801982511681845116808217855250505050505090500191505090815260200160405180910390206111c390919063ffffffff16565b5050565b6000816040516020018082805190602001908083835b6020831015156108fd57805182526020820191506020810190506020830392506108d8565b6001836020036101000a03801982511681845116808217855250505050505090500191505060405160208183030381529060405280519060200120600160025481548110151561094957fe5b906000526020600020906005020160000160405160200180828054600181600116156101000203166002900480156109b85780601f106109965761010080835404028352918201916109b8565b820191906000526020600020905b8154815290600101906020018083116109a4575b505091505060405160208183030381529060405280519060200120149050919050565b610a1a336040805190810160405280600581526020017f6f776e6572000000000000000000000000000000000000000000000000000000815250610841565b610a59816040805190810160405280600581526020017f61646d696e0000000000000000000000000000000000000000000000000000008152506111dc565b50565b6000610adb836000846040518082805190602001908083835b602083101515610a9a5780518252602082019150602081019050602083039250610a75565b6001836020036101000a038019825116818451168082178552505050505050905001915050908152602001604051809103902061131090919063ffffffff16565b905092915050565b610b22336040805190810160405280600581526020017f6f776e6572000000000000000000000000000000000000000000000000000000815250610841565b3373ffffffffffffffffffffffffffffffffffffffff16ff5b610b7a336040805190810160405280600581526020017f6f776e6572000000000000000000000000000000000000000000000000000000815250610841565b610bb9816040805190810160405280600581526020017f61646d696e000000000000000000000000000000000000000000000000000000815250611369565b50565b6040805190810160405280600581526020017f6f776e657200000000000000000000000000000000000000000000000000000081525081565b6060600080610c02611559565b600185815481101515610c1157fe5b906000526020600020906005020160a06040519081016040529081600082018054600181600116156101000203166002900480601f016020809104026020016040519081016040528092919081815260200182805460018160011615610100020316600290048015610cc45780601f10610c9957610100808354040283529160200191610cc4565b820191906000526020600020905b815481529060010190602001808311610ca757829003601f168201915b50505050508152602001600182018054600181600116156101000203166002900480601f016020809104026020016040519081016040528092919081815260200182805460018160011615610100020316600290048015610d665780601f10610d3b57610100808354040283529160200191610d66565b820191906000526020600020905b815481529060010190602001808311610d4957829003601f168201915b505050505081526020016002820160009054906101000a900473ffffffffffffffffffffffffffffffffffffffff1673ffffffffffffffffffffffffffffffffffffffff1673ffffffffffffffffffffffffffffffffffffffff168152602001600382015481526020016004820154815250509050806000015181604001518260600151829250935093509350509193909250565b610e3a336040805190810160405280600581526020017f61646d696e000000000000000000000000000000000000000000000000000000815250610841565b6001600260008282540192505081905550610e53611559565b81816000018190525033816040019073ffffffffffffffffffffffffffffffffffffffff16908173ffffffffffffffffffffffffffffffffffffffff168152505042816060018181525050600254816080018181525050600181908060018154018082558091505090600182039060005260206000209060050201600090919290919091506000820151816000019080519060200190610ef492919061159f565b506020820151816001019080519060200190610f1192919061159f565b5060408201518160020160006101000a81548173ffffffffffffffffffffffffffffffffffffffff021916908373ffffffffffffffffffffffffffffffffffffffff16021790555060608201518160030155608082015181600401555050505050565b6040805190810160405280600581526020017f61646d696e00000000000000000000000000000000000000000000000000000081525081565b6060600080610fba611559565b6001600254815481101515610fcb57fe5b906000526020600020906005020160a06040519081016040529081600082018054600181600116156101000203166002900480601f01602080910402602001604051908101604052809291908181526020018280546001816001161561010002031660029004801561107e5780601f106110535761010080835404028352916020019161107e565b820191906000526020600020905b81548152906001019060200180831161106157829003601f168201915b50505050508152602001600182018054600181600116156101000203166002900480601f0160208091040260200160405190810160405280929190818152602001828054600181600116156101000203166002900480156111205780601f106110f557610100808354040283529160200191611120565b820191906000526020600020905b81548152906001019060200180831161110357829003601f168201915b505050505081526020016002820160009054906101000a900473ffffffffffffffffffffffffffffffffffffffff1673ffffffffffffffffffffffffffffffffffffffff1673ffffffffffffffffffffffffffffffffffffffff16815260200160038201548152602001600482015481525050905080600001518160400151826060015182925093509350935050909192565b60025481565b6000600254905090565b6111cd8282611310565b15156111d857600080fd5b5050565b611259826000836040518082805190602001908083835b60208310151561121857805182526020820191506020810190506020830392506111f3565b6001836020036101000a038019825116818451168082178552505050505050905001915050908152602001604051809103902061149d90919063ffffffff16565b8173ffffffffffffffffffffffffffffffffffffffff167fd211483f91fc6eff862467f8de606587a30c8fc9981056f051b897a418df803a826040518080602001828103825283818151815260200191508051906020019080838360005b838110156112d25780820151818401526020810190506112b7565b50505050905090810190601f1680156112ff5780820380516001836020036101000a031916815260200191505b509250505060405180910390a25050565b60008260000160008373ffffffffffffffffffffffffffffffffffffffff1673ffffffffffffffffffffffffffffffffffffffff16815260200190815260200160002060009054906101000a900460ff16905092915050565b6113e6826000836040518082805190602001908083835b6020831015156113a55780518252602082019150602081019050602083039250611380565b6001836020036101000a03801982511681845116808217855250505050505090500191505090815260200160405180910390206114fb90919063ffffffff16565b8173ffffffffffffffffffffffffffffffffffffffff167fbfec83d64eaa953f2708271a023ab9ee82057f8f3578d548c1a4ba0b5b700489826040518080602001828103825283818151815260200191508051906020019080838360005b8381101561145f578082015181840152602081019050611444565b50505050905090810190601f16801561148c5780820380516001836020036101000a031916815260200191505b509250505060405180910390a25050565b60008260000160008373ffffffffffffffffffffffffffffffffffffffff1673ffffffffffffffffffffffffffffffffffffffff16815260200190815260200160002060006101000a81548160ff0219169083151502179055505050565b60018260000160008373ffffffffffffffffffffffffffffffffffffffff1673ffffffffffffffffffffffffffffffffffffffff16815260200190815260200160002060006101000a81548160ff0219169083151502179055505050565b60a0604051908101604052806060815260200160608152602001600073ffffffffffffffffffffffffffffffffffffffff16815260200160008152602001600081525090565b828054600181600116156101000203166002900490600052602060002090601f016020900481019282601f106115e057805160ff191683800117855561160e565b8280016001018555821561160e579182015b8281111561160d5782518255916020019190600101906115f2565b5b50905061161b919061161f565b5090565b61164191905b8082111561163d576000816000905550600101611625565b5090565b9056fea165627a7a723058209df690031a1f7085dc05f1f40442488968cd464fee8cb95de2690931413186d50029a165627a7a72305820ecabd2e34a16f70c3cc96ca35e51a7ef049155e0c9d98461a0869974ed6646e90029",
  "source": "pragma solidity ^0.5.0;\n\nimport \"./RBAC.sol\";\nimport \"./File.sol\";\n\ncontract FileFactory is RBAC {\n    File[] public filesList;\n    uint public fileIndex;\n    address public owner;\n    \n    mapping (uint => address) addressFromIndex;\n    mapping (address => address) createrAddress;\n    mapping(address => string) nameFromAddress;\n    mapping(string => address) addressFromName;\n    \n    string constant ROLE_OWNER = \"owner\";\n    \n    function createFileContract(string memory _hash, string memory _name) public {\n        File newFile = new File(_hash, msg.sender, _name);\n        filesList.push(newFile);\n        fileIndex += 1;\n        addressFromIndex[fileIndex] = address(newFile);\n        createrAddress[address(newFile)] = msg.sender;\n        nameFromAddress[address(newFile)] = _name;\n        addressFromName[_name] = address(newFile);\n        owner = msg.sender;\n    }\n    \n    modifier onlyOwner() {\n        checkRole(msg.sender, ROLE_OWNER);\n        _;\n    }\n    \n    function getDeployedFileContract() public view returns(File[] memory) {\n        return filesList;\n    }\n    \n    function getCreater(address _contractAddress) public view returns(address) {\n        return createrAddress[_contractAddress];\n    }\n\n    function getFileName(address _contractAddress) public view returns(string memory) {\n        return nameFromAddress[_contractAddress];\n    }\n    \n    function destory() onlyOwner public {\n        selfdestruct(msg.sender);\n    }\n    \n}",
  "sourcePath": "/Users/hikishiritakatoshi/CryptoEconomics/Ethereum/Contract/filehistory/contracts/FileFactory.sol",
  "compiler": {
    "name": "solc",
    "version": "0.5.0+commit.1d4f565a.Emscripten.clang"
  },
  "schemaVersion": "3.0.9",
  "updatedAt": "2019-07-24T06:16:59.357Z",
  "devdoc": {
    "methods": {
      "checkRole(address,string)": {
        "details": "reverts if addr does not have role",
        "params": {
          "_operator": "address",
          "_role": "the name of the role // reverts"
        }
      },
      "hasRole(address,string)": {
        "details": "determine if addr has role",
        "params": {
          "_operator": "address",
          "_role": "the name of the role"
        },
        "return": "bool"
      }
    }
  },
  "userdoc": {
    "methods": {}
  }
}