{
  "contractName": "RBAC",
  "abi": [
    {
      "anonymous": false,
      "inputs": [
        {
          "indexed": true,
          "name": "operator",
          "type": "address"
        },
        {
          "indexed": false,
          "name": "role",
          "type": "string"
        }
      ],
      "name": "RoleAdded",
      "type": "event"
    },
    {
      "anonymous": false,
      "inputs": [
        {
          "indexed": true,
          "name": "operator",
          "type": "address"
        },
        {
          "indexed": false,
          "name": "role",
          "type": "string"
        }
      ],
      "name": "RoleRemoved",
      "type": "event"
    },
    {
      "constant": true,
      "inputs": [
        {
          "name": "_operator",
          "type": "address"
        },
        {
          "name": "_role",
          "type": "string"
        }
      ],
      "name": "checkRole",
      "outputs": [],
      "payable": false,
      "stateMutability": "view",
      "type": "function"
    },
    {
      "constant": true,
      "inputs": [
        {
          "name": "_operator",
          "type": "address"
        },
        {
          "name": "_role",
          "type": "string"
        }
      ],
      "name": "hasRole",
      "outputs": [
        {
          "name": "",
          "type": "bool"
        }
      ],
      "payable": false,
      "stateMutability": "view",
      "type": "function"
    }
  ],
  "bytecode": "0x608060405234801561001057600080fd5b506103df806100206000396000f3fe60806040526004361061004c576000357c0100000000000000000000000000000000000000000000000000000000900463ffffffff1680630988ca8c14610051578063217fe6c614610139575b600080fd5b34801561005d57600080fd5b506101376004803603604081101561007457600080fd5b81019080803573ffffffffffffffffffffffffffffffffffffffff169060200190929190803590602001906401000000008111156100b157600080fd5b8201836020820111156100c357600080fd5b803590602001918460018302840111640100000000831117156100e557600080fd5b91908080601f016020809104026020016040519081016040528093929190818152602001838380828437600081840152601f19601f820116905080830192505050505050509192919290505050610239565b005b34801561014557600080fd5b5061021f6004803603604081101561015c57600080fd5b81019080803573ffffffffffffffffffffffffffffffffffffffff1690602001909291908035906020019064010000000081111561019957600080fd5b8201836020820111156101ab57600080fd5b803590602001918460018302840111640100000000831117156101cd57600080fd5b91908080601f016020809104026020016040519081016040528093929190818152602001838380828437600081840152601f19601f8201169050808301925050505050505091929192905050506102ba565b604051808215151515815260200191505060405180910390f35b6102b6826000836040518082805190602001908083835b6020831015156102755780518252602082019150602081019050602083039250610250565b6001836020036101000a038019825116818451168082178552505050505050905001915050908152602001604051809103902061034190919063ffffffff16565b5050565b6000610339836000846040518082805190602001908083835b6020831015156102f857805182526020820191506020810190506020830392506102d3565b6001836020036101000a038019825116818451168082178552505050505050905001915050908152602001604051809103902061035a90919063ffffffff16565b905092915050565b61034b828261035a565b151561035657600080fd5b5050565b60008260000160008373ffffffffffffffffffffffffffffffffffffffff1673ffffffffffffffffffffffffffffffffffffffff16815260200190815260200160002060009054906101000a900460ff1690509291505056fea165627a7a72305820bed120cd8e5f445fe02ffa97455e224fffac82e4c0d85250b451cd240eae9e360029",
  "source": "pragma solidity ^0.5.0;\n\nimport \"./Roles.sol\";\n\ncontract RBAC {\n  using Roles for Roles.Role;\n\n  mapping (string => Roles.Role) private roles;\n\n  event RoleAdded(address indexed operator, string role);\n  event RoleRemoved(address indexed operator, string role);\n\n  /**\n   * @dev reverts if addr does not have role\n   * @param _operator address\n   * @param _role the name of the role\n   * // reverts\n   */\n  function checkRole(address _operator, string memory  _role)\n    public\n    view\n  {\n    roles[_role].check(_operator);\n  }\n\n  /**\n   * @dev determine if addr has role\n   * @param _operator address\n   * @param _role the name of the role\n   * @return bool\n   */\n  function hasRole(address _operator, string memory _role)\n    public\n    view\n    returns (bool)\n  {\n    return roles[_role].has(_operator);\n  }\n\n  /**\n   * @dev add a role to an address\n   * @param _operator address\n   * @param _role the name of the role\n   */\n  function addRole(address _operator, string memory _role) internal {\n    roles[_role].add(_operator);\n    emit RoleAdded(_operator, _role);\n  }\n\n  /**\n   * @dev remove a role from an address\n   * @param _operator address\n   * @param _role the name of the role\n   */\n  function removeRole(address _operator, string memory  _role)\n    internal\n  {\n    roles[_role].remove(_operator);\n    emit RoleRemoved(_operator, _role);\n  }\n\n  /**\n   * @dev modifier to scope access to a single role (uses msg.sender as addr)\n   * @param _role the name of the role\n   * // reverts\n   */\n  modifier onlyRole(string memory _role)\n  {\n    checkRole(msg.sender, _role);\n    _;\n  }\n\n  /**\n   * @dev modifier to scope access to a set of roles (uses msg.sender as addr)\n   * @param _roles the names of the roles to scope access to\n   * // reverts\n   *\n   * @TODO - when solidity supports dynamic arrays as arguments to modifiers, provide this\n   *  see: https://github.com/ethereum/solidity/issues/2467\n   */\n  // modifier onlyRoles(string[] _roles) {\n  //     bool hasAnyRole = false;\n  //     for (uint8 i = 0; i < _roles.length; i++) {\n  //         if (hasRole(msg.sender, _roles[i])) {\n  //             hasAnyRole = true;\n  //             break;\n  //         }\n  //     }\n\n  //     require(hasAnyRole);\n\n  //     _;\n  // }\n}",
  "sourcePath": "/Users/hikishiritakatoshi/CryptoEconomics/Ethereum/Contract/filehistory/contracts/RBAC.sol",
  "compiler": {
    "name": "solc",
    "version": "0.5.0+commit.1d4f565a.Emscripten.clang"
  },
  "schemaVersion": "3.0.9",
  "updatedAt": "2019-07-24T06:16:59.664Z",
  "devdoc": {
    "methods": {
      "checkRole(address,string)": {
        "details": "reverts if addr does not have role",
        "params": {
          "_operator": "address",
          "_role": "the name of the role // reverts"
        }
      },
      "hasRole(address,string)": {
        "details": "determine if addr has role",
        "params": {
          "_operator": "address",
          "_role": "the name of the role"
        },
        "return": "bool"
      }
    }
  },
  "userdoc": {
    "methods": {}
  }
}